{
  "_format": "hh-sol-artifact-1",
  "contractName": "PatientRecordVerification",
  "sourceName": "contracts/PatientRecordVerification.sol",
  "abi": [
    {
      "anonymous": false,
      "inputs": [
        {
          "indexed": true,
          "internalType": "address",
          "name": "patient",
          "type": "address"
        },
        {
          "indexed": true,
          "internalType": "address",
          "name": "viewer",
          "type": "address"
        }
      ],
      "name": "AccessGranted",
      "type": "event"
    },
    {
      "anonymous": false,
      "inputs": [
        {
          "indexed": true,
          "internalType": "address",
          "name": "patient",
          "type": "address"
        },
        {
          "indexed": true,
          "internalType": "address",
          "name": "viewer",
          "type": "address"
        }
      ],
      "name": "AccessRevoked",
      "type": "event"
    },
    {
      "anonymous": false,
      "inputs": [
        {
          "indexed": true,
          "internalType": "address",
          "name": "patient",
          "type": "address"
        },
        {
          "indexed": true,
          "internalType": "bytes32",
          "name": "recordId",
          "type": "bytes32"
        }
      ],
      "name": "RecordAdded",
      "type": "event"
    },
    {
      "anonymous": false,
      "inputs": [
        {
          "indexed": true,
          "internalType": "address",
          "name": "patient",
          "type": "address"
        },
        {
          "indexed": true,
          "internalType": "bytes32",
          "name": "recordId",
          "type": "bytes32"
        },
        {
          "indexed": false,
          "internalType": "address",
          "name": "verifier",
          "type": "address"
        }
      ],
      "name": "RecordVerified",
      "type": "event"
    },
    {
      "anonymous": false,
      "inputs": [
        {
          "indexed": true,
          "internalType": "address",
          "name": "userAddress",
          "type": "address"
        },
        {
          "indexed": false,
          "internalType": "string",
          "name": "name",
          "type": "string"
        },
        {
          "indexed": false,
          "internalType": "uint8",
          "name": "role",
          "type": "uint8"
        }
      ],
      "name": "UserRegistered",
      "type": "event"
    },
    {
      "inputs": [
        {
          "internalType": "bytes32",
          "name": "_recordId",
          "type": "bytes32"
        },
        {
          "internalType": "string",
          "name": "_recordHash",
          "type": "string"
        }
      ],
      "name": "addRecord",
      "outputs": [],
      "stateMutability": "nonpayable",
      "type": "function"
    },
    {
      "inputs": [],
      "name": "getAuthorizedViewers",
      "outputs": [
        {
          "internalType": "address[]",
          "name": "",
          "type": "address[]"
        }
      ],
      "stateMutability": "view",
      "type": "function"
    },
    {
      "inputs": [
        {
          "internalType": "address",
          "name": "_patient",
          "type": "address"
        },
        {
          "internalType": "bytes32",
          "name": "_recordId",
          "type": "bytes32"
        }
      ],
      "name": "getRecord",
      "outputs": [
        {
          "internalType": "string",
          "name": "",
          "type": "string"
        },
        {
          "internalType": "uint256",
          "name": "",
          "type": "uint256"
        },
        {
          "internalType": "address",
          "name": "",
          "type": "address"
        },
        {
          "internalType": "bool",
          "name": "",
          "type": "bool"
        }
      ],
      "stateMutability": "view",
      "type": "function"
    },
    {
      "inputs": [
        {
          "internalType": "address",
          "name": "_viewer",
          "type": "address"
        }
      ],
      "name": "grantAccess",
      "outputs": [],
      "stateMutability": "nonpayable",
      "type": "function"
    },
    {
      "inputs": [
        {
          "internalType": "address",
          "name": "_patient",
          "type": "address"
        },
        {
          "internalType": "address",
          "name": "_doctor",
          "type": "address"
        }
      ],
      "name": "isAuthorized",
      "outputs": [
        {
          "internalType": "bool",
          "name": "",
          "type": "bool"
        }
      ],
      "stateMutability": "view",
      "type": "function"
    },
    {
      "inputs": [
        {
          "internalType": "address",
          "name": "_patient",
          "type": "address"
        },
        {
          "internalType": "bytes32",
          "name": "_recordId",
          "type": "bytes32"
        }
      ],
      "name": "isRecordVerified",
      "outputs": [
        {
          "internalType": "bool",
          "name": "",
          "type": "bool"
        }
      ],
      "stateMutability": "view",
      "type": "function"
    },
    {
      "inputs": [
        {
          "internalType": "string",
          "name": "_name",
          "type": "string"
        },
        {
          "internalType": "uint8",
          "name": "_role",
          "type": "uint8"
        }
      ],
      "name": "registerUser",
      "outputs": [],
      "stateMutability": "nonpayable",
      "type": "function"
    },
    {
      "inputs": [
        {
          "internalType": "address",
          "name": "_viewer",
          "type": "address"
        }
      ],
      "name": "revokeAccess",
      "outputs": [],
      "stateMutability": "nonpayable",
      "type": "function"
    },
    {
      "inputs": [
        {
          "internalType": "address",
          "name": "",
          "type": "address"
        }
      ],
      "name": "users",
      "outputs": [
        {
          "internalType": "string",
          "name": "name",
          "type": "string"
        },
        {
          "internalType": "enum PatientRecordVerification.Role",
          "name": "role",
          "type": "uint8"
        },
        {
          "internalType": "bool",
          "name": "isActive",
          "type": "bool"
        }
      ],
      "stateMutability": "view",
      "type": "function"
    },
    {
      "inputs": [
        {
          "internalType": "address",
          "name": "_patient",
          "type": "address"
        },
        {
          "internalType": "bytes32",
          "name": "_recordId",
          "type": "bytes32"
        }
      ],
      "name": "verifyRecord",
      "outputs": [],
      "stateMutability": "nonpayable",
      "type": "function"
    }
  ],
  "bytecode": "0x608060405234801561001057600080fd5b50612865806100206000396000f3fe608060405234801561001057600080fd5b506004361061009e5760003560e01c806365e4ad9e1161006657806365e4ad9e14610146578063804e10441461017657806385e6853114610194578063a87430ba146101b0578063dd95b558146101e25761009e565b80630ae5e739146100a35780631793b0f2146100bf578063338e12eb146100db5780633aef11b1146100f7578063639063ac1461012a575b600080fd5b6100bd60048036038101906100b8919061198c565b610212565b005b6100d960048036038101906100d49190611b35565b610560565b005b6100f560048036038101906100f09190611bca565b610814565b005b610111600480360381019061010c9190611c26565b610a5d565b6040516101219493929190611d28565b60405180910390f35b610144600480360381019061013f9190611c26565b610e5a565b005b610160600480360381019061015b9190611d74565b611239565b60405161016d9190611db4565b60405180910390f35b61017e611386565b60405161018b9190611e8d565b60405180910390f35b6101ae60048036038101906101a9919061198c565b611506565b005b6101ca60048036038101906101c5919061198c565b6117e3565b6040516101d993929190611f26565b60405180910390f35b6101fc60048036038101906101f79190611c26565b6118af565b6040516102099190611db4565b60405180910390f35b6001600281111561022657610225611eaf565b5b6000803373ffffffffffffffffffffffffffffffffffffffff1673ffffffffffffffffffffffffffffffffffffffff16815260200190815260200160002060010160009054906101000a900460ff16600281111561028757610286611eaf565b5b146102c7576040517f08c379a00000000000000000000000000000000000000000000000000000000081526004016102be90611fd6565b60405180910390fd5b6002808111156102da576102d9611eaf565b5b6000808373ffffffffffffffffffffffffffffffffffffffff1673ffffffffffffffffffffffffffffffffffffffff16815260200190815260200160002060010160009054906101000a900460ff16600281111561033b5761033a611eaf565b5b1461037b576040517f08c379a000000000000000000000000000000000000000000000000000000000815260040161037290612068565b60405180910390fd5b600080600260003373ffffffffffffffffffffffffffffffffffffffff1673ffffffffffffffffffffffffffffffffffffffff168152602001908152602001600020905060005b818054905081101561045a578373ffffffffffffffffffffffffffffffffffffffff168282815481106103f8576103f7612088565b5b9060005260206000200160009054906101000a900473ffffffffffffffffffffffffffffffffffffffff1673ffffffffffffffffffffffffffffffffffffffff1603610447576001925061045a565b8080610452906120e6565b9150506103c2565b508161055b57600260003373ffffffffffffffffffffffffffffffffffffffff1673ffffffffffffffffffffffffffffffffffffffff168152602001908152602001600020839080600181540180825580915050600190039060005260206000200160009091909190916101000a81548173ffffffffffffffffffffffffffffffffffffffff021916908373ffffffffffffffffffffffffffffffffffffffff1602179055508273ffffffffffffffffffffffffffffffffffffffff163373ffffffffffffffffffffffffffffffffffffffff167f9f520b3bfc56d06f7065d10b4683b3f57ac8895d5026cd176dee95ce1454cb8d60405160405180910390a35b505050565b6001600281111561057457610573611eaf565b5b6000803373ffffffffffffffffffffffffffffffffffffffff1673ffffffffffffffffffffffffffffffffffffffff16815260200190815260200160002060010160009054906101000a900460ff1660028111156105d5576105d4611eaf565b5b14610615576040517f08c379a000000000000000000000000000000000000000000000000000000000815260040161060c90611fd6565b60405180910390fd5b6000600160003373ffffffffffffffffffffffffffffffffffffffff1673ffffffffffffffffffffffffffffffffffffffff168152602001908152602001600020600084815260200190815260200160002060000180546106759061215d565b9050146106b7576040517f08c379a00000000000000000000000000000000000000000000000000000000081526004016106ae906121da565b60405180910390fd5b6040518060800160405280828152602001428152602001600073ffffffffffffffffffffffffffffffffffffffff16815260200160001515815250600160003373ffffffffffffffffffffffffffffffffffffffff1673ffffffffffffffffffffffffffffffffffffffff1681526020019081526020016000206000848152602001908152602001600020600082015181600001908161075791906123a6565b506020820151816001015560408201518160020160006101000a81548173ffffffffffffffffffffffffffffffffffffffff021916908373ffffffffffffffffffffffffffffffffffffffff16021790555060608201518160020160146101000a81548160ff021916908315150217905550905050813373ffffffffffffffffffffffffffffffffffffffff167fcd8d971de15defd5d6c1776f3e45f9ad8e646ee0a82d5601a1a90796634a1a0760405160405180910390a35050565b6000600281111561082857610827611eaf565b5b6000803373ffffffffffffffffffffffffffffffffffffffff1673ffffffffffffffffffffffffffffffffffffffff16815260200190815260200160002060010160009054906101000a900460ff16600281111561088957610888611eaf565b5b146108c9576040517f08c379a00000000000000000000000000000000000000000000000000000000081526004016108c0906124c4565b60405180910390fd5b60018160ff1614806108de575060028160ff16145b61091d576040517f08c379a000000000000000000000000000000000000000000000000000000000815260040161091490612530565b60405180910390fd5b60405180606001604052808381526020018260ff16600281111561094457610943611eaf565b5b600281111561095657610955611eaf565b5b8152602001600115158152506000803373ffffffffffffffffffffffffffffffffffffffff1673ffffffffffffffffffffffffffffffffffffffff16815260200190815260200160002060008201518160000190816109b591906123a6565b5060208201518160010160006101000a81548160ff021916908360028111156109e1576109e0611eaf565b5b021790555060408201518160010160016101000a81548160ff0219169083151502179055509050503373ffffffffffffffffffffffffffffffffffffffff167fc2e5d5da58bd71d1a2d14cdef02a4256d971b728088f8190d067ccfbae3bd73e8383604051610a5192919061255f565b60405180910390a25050565b6060600080600080600090508673ffffffffffffffffffffffffffffffffffffffff163373ffffffffffffffffffffffffffffffffffffffff1603610aa55760019050610be5565b6000600260008973ffffffffffffffffffffffffffffffffffffffff1673ffffffffffffffffffffffffffffffffffffffff168152602001908152602001600020805480602002602001604051908101604052809291908181526020018280548015610b6657602002820191906000526020600020905b8160009054906101000a900473ffffffffffffffffffffffffffffffffffffffff1673ffffffffffffffffffffffffffffffffffffffff1681526020019060010190808311610b1c575b5050505050905060005b8151811015610be2573373ffffffffffffffffffffffffffffffffffffffff16828281518110610ba357610ba2612088565b5b602002602001015173ffffffffffffffffffffffffffffffffffffffff1603610bcf5760019250610be2565b8080610bda906120e6565b915050610b70565b50505b80610c25576040517f08c379a0000000000000000000000000000000000000000000000000000000008152600401610c1c90612601565b60405180910390fd5b6000600160008973ffffffffffffffffffffffffffffffffffffffff1673ffffffffffffffffffffffffffffffffffffffff16815260200190815260200160002060008881526020019081526020016000206000018054610c859061215d565b905011610cc7576040517f08c379a0000000000000000000000000000000000000000000000000000000008152600401610cbe9061266d565b60405180910390fd5b6000600160008973ffffffffffffffffffffffffffffffffffffffff1673ffffffffffffffffffffffffffffffffffffffff1681526020019081526020016000206000888152602001908152602001600020604051806080016040529081600082018054610d349061215d565b80601f0160208091040260200160405190810160405280929190818152602001828054610d609061215d565b8015610dad5780601f10610d8257610100808354040283529160200191610dad565b820191906000526020600020905b815481529060010190602001808311610d9057829003601f168201915b50505050508152602001600182015481526020016002820160009054906101000a900473ffffffffffffffffffffffffffffffffffffffff1673ffffffffffffffffffffffffffffffffffffffff1673ffffffffffffffffffffffffffffffffffffffff1681526020016002820160149054906101000a900460ff161515151581525050905080600001518160200151826040015183606001519550955095509550505092959194509250565b600280811115610e6d57610e6c611eaf565b5b6000803373ffffffffffffffffffffffffffffffffffffffff1673ffffffffffffffffffffffffffffffffffffffff16815260200190815260200160002060010160009054906101000a900460ff166002811115610ece57610ecd611eaf565b5b14610f0e576040517f08c379a0000000000000000000000000000000000000000000000000000000008152600401610f05906126ff565b60405180910390fd5b6000600160008473ffffffffffffffffffffffffffffffffffffffff1673ffffffffffffffffffffffffffffffffffffffff16815260200190815260200160002060008381526020019081526020016000206000018054610f6e9061215d565b905011610fb0576040517f08c379a0000000000000000000000000000000000000000000000000000000008152600401610fa79061266d565b60405180910390fd5b600080600260008573ffffffffffffffffffffffffffffffffffffffff1673ffffffffffffffffffffffffffffffffffffffff16815260200190815260200160002080548060200260200160405190810160405280929190818152602001828054801561107257602002820191906000526020600020905b8160009054906101000a900473ffffffffffffffffffffffffffffffffffffffff1673ffffffffffffffffffffffffffffffffffffffff1681526020019060010190808311611028575b5050505050905060005b81518110156110ee573373ffffffffffffffffffffffffffffffffffffffff168282815181106110af576110ae612088565b5b602002602001015173ffffffffffffffffffffffffffffffffffffffff16036110db57600192506110ee565b80806110e6906120e6565b91505061107c565b508161112f576040517f08c379a000000000000000000000000000000000000000000000000000000000815260040161112690612791565b60405180910390fd5b6000600160008673ffffffffffffffffffffffffffffffffffffffff1673ffffffffffffffffffffffffffffffffffffffff1681526020019081526020016000206000858152602001908152602001600020905060018160020160146101000a81548160ff021916908315150217905550338160020160006101000a81548173ffffffffffffffffffffffffffffffffffffffff021916908373ffffffffffffffffffffffffffffffffffffffff160217905550838573ffffffffffffffffffffffffffffffffffffffff167f856a091834932e9d7bf07b0d32cff64d94253b57677c18bc32cf4d0b747103ef3360405161122a91906127b1565b60405180910390a35050505050565b600080600260008573ffffffffffffffffffffffffffffffffffffffff1673ffffffffffffffffffffffffffffffffffffffff1681526020019081526020016000208054806020026020016040519081016040528092919081815260200182805480156112fb57602002820191906000526020600020905b8160009054906101000a900473ffffffffffffffffffffffffffffffffffffffff1673ffffffffffffffffffffffffffffffffffffffff16815260200190600101908083116112b1575b5050505050905060005b8151811015611379578373ffffffffffffffffffffffffffffffffffffffff1682828151811061133857611337612088565b5b602002602001015173ffffffffffffffffffffffffffffffffffffffff160361136657600192505050611380565b8080611371906120e6565b915050611305565b5060009150505b92915050565b60606001600281111561139c5761139b611eaf565b5b6000803373ffffffffffffffffffffffffffffffffffffffff1673ffffffffffffffffffffffffffffffffffffffff16815260200190815260200160002060010160009054906101000a900460ff1660028111156113fd576113fc611eaf565b5b1461143d576040517f08c379a000000000000000000000000000000000000000000000000000000000815260040161143490611fd6565b60405180910390fd5b600260003373ffffffffffffffffffffffffffffffffffffffff1673ffffffffffffffffffffffffffffffffffffffff1681526020019081526020016000208054806020026020016040519081016040528092919081815260200182805480156114fc57602002820191906000526020600020905b8160009054906101000a900473ffffffffffffffffffffffffffffffffffffffff1673ffffffffffffffffffffffffffffffffffffffff16815260200190600101908083116114b2575b5050505050905090565b6001600281111561151a57611519611eaf565b5b6000803373ffffffffffffffffffffffffffffffffffffffff1673ffffffffffffffffffffffffffffffffffffffff16815260200190815260200160002060010160009054906101000a900460ff16600281111561157b5761157a611eaf565b5b146115bb576040517f08c379a00000000000000000000000000000000000000000000000000000000081526004016115b290611fd6565b60405180910390fd5b6000600260003373ffffffffffffffffffffffffffffffffffffffff1673ffffffffffffffffffffffffffffffffffffffff168152602001908152602001600020905060005b81805490508110156117de578273ffffffffffffffffffffffffffffffffffffffff1682828154811061163757611636612088565b5b9060005260206000200160009054906101000a900473ffffffffffffffffffffffffffffffffffffffff1673ffffffffffffffffffffffffffffffffffffffff16036117cb57816001838054905061168f91906127cc565b815481106116a05761169f612088565b5b9060005260206000200160009054906101000a900473ffffffffffffffffffffffffffffffffffffffff168282815481106116de576116dd612088565b5b9060005260206000200160006101000a81548173ffffffffffffffffffffffffffffffffffffffff021916908373ffffffffffffffffffffffffffffffffffffffff1602179055508180548061173757611736612800565b5b6001900381819060005260206000200160006101000a81549073ffffffffffffffffffffffffffffffffffffffff021916905590558273ffffffffffffffffffffffffffffffffffffffff163373ffffffffffffffffffffffffffffffffffffffff167f825c8be24eb0df19500f63e86c29e7d0d951e73056b889b891d85e40938d9b6e60405160405180910390a36117de565b80806117d6906120e6565b915050611601565b505050565b60006020528060005260406000206000915090508060000180546118069061215d565b80601f01602080910402602001604051908101604052809291908181526020018280546118329061215d565b801561187f5780601f106118545761010080835404028352916020019161187f565b820191906000526020600020905b81548152906001019060200180831161186257829003601f168201915b5050505050908060010160009054906101000a900460ff16908060010160019054906101000a900460ff16905083565b6000600160008473ffffffffffffffffffffffffffffffffffffffff1673ffffffffffffffffffffffffffffffffffffffff168152602001908152602001600020600083815260200190815260200160002060020160149054906101000a900460ff16905092915050565b6000604051905090565b600080fd5b600080fd5b600073ffffffffffffffffffffffffffffffffffffffff82169050919050565b60006119598261192e565b9050919050565b6119698161194e565b811461197457600080fd5b50565b60008135905061198681611960565b92915050565b6000602082840312156119a2576119a1611924565b5b60006119b084828501611977565b91505092915050565b6000819050919050565b6119cc816119b9565b81146119d757600080fd5b50565b6000813590506119e9816119c3565b92915050565b600080fd5b600080fd5b6000601f19601f8301169050919050565b7f4e487b7100000000000000000000000000000000000000000000000000000000600052604160045260246000fd5b611a42826119f9565b810181811067ffffffffffffffff82111715611a6157611a60611a0a565b5b80604052505050565b6000611a7461191a565b9050611a808282611a39565b919050565b600067ffffffffffffffff821115611aa057611a9f611a0a565b5b611aa9826119f9565b9050602081019050919050565b82818337600083830152505050565b6000611ad8611ad384611a85565b611a6a565b905082815260208101848484011115611af457611af36119f4565b5b611aff848285611ab6565b509392505050565b600082601f830112611b1c57611b1b6119ef565b5b8135611b2c848260208601611ac5565b91505092915050565b60008060408385031215611b4c57611b4b611924565b5b6000611b5a858286016119da565b925050602083013567ffffffffffffffff811115611b7b57611b7a611929565b5b611b8785828601611b07565b9150509250929050565b600060ff82169050919050565b611ba781611b91565b8114611bb257600080fd5b50565b600081359050611bc481611b9e565b92915050565b60008060408385031215611be157611be0611924565b5b600083013567ffffffffffffffff811115611bff57611bfe611929565b5b611c0b85828601611b07565b9250506020611c1c85828601611bb5565b9150509250929050565b60008060408385031215611c3d57611c3c611924565b5b6000611c4b85828601611977565b9250506020611c5c858286016119da565b9150509250929050565b600081519050919050565b600082825260208201905092915050565b60005b83811015611ca0578082015181840152602081019050611c85565b60008484015250505050565b6000611cb782611c66565b611cc18185611c71565b9350611cd1818560208601611c82565b611cda816119f9565b840191505092915050565b6000819050919050565b611cf881611ce5565b82525050565b611d078161194e565b82525050565b60008115159050919050565b611d2281611d0d565b82525050565b60006080820190508181036000830152611d428187611cac565b9050611d516020830186611cef565b611d5e6040830185611cfe565b611d6b6060830184611d19565b95945050505050565b60008060408385031215611d8b57611d8a611924565b5b6000611d9985828601611977565b9250506020611daa85828601611977565b9150509250929050565b6000602082019050611dc96000830184611d19565b92915050565b600081519050919050565b600082825260208201905092915050565b6000819050602082019050919050565b611e048161194e565b82525050565b6000611e168383611dfb565b60208301905092915050565b6000602082019050919050565b6000611e3a82611dcf565b611e448185611dda565b9350611e4f83611deb565b8060005b83811015611e80578151611e678882611e0a565b9750611e7283611e22565b925050600181019050611e53565b5085935050505092915050565b60006020820190508181036000830152611ea78184611e2f565b905092915050565b7f4e487b7100000000000000000000000000000000000000000000000000000000600052602160045260246000fd5b60038110611eef57611eee611eaf565b5b50565b6000819050611f0082611ede565b919050565b6000611f1082611ef2565b9050919050565b611f2081611f05565b82525050565b60006060820190508181036000830152611f408186611cac565b9050611f4f6020830185611f17565b611f5c6040830184611d19565b949350505050565b7f4f6e6c792070617469656e74732063616e2063616c6c20746869732066756e6360008201527f74696f6e00000000000000000000000000000000000000000000000000000000602082015250565b6000611fc0602483611c71565b9150611fcb82611f64565b604082019050919050565b60006020820190508181036000830152611fef81611fb3565b9050919050565b7f4163636573732063616e206f6e6c79206265206772616e74656420746f20646f60008201527f63746f7273000000000000000000000000000000000000000000000000000000602082015250565b6000612052602583611c71565b915061205d82611ff6565b604082019050919050565b6000602082019050818103600083015261208181612045565b9050919050565b7f4e487b7100000000000000000000000000000000000000000000000000000000600052603260045260246000fd5b7f4e487b7100000000000000000000000000000000000000000000000000000000600052601160045260246000fd5b60006120f182611ce5565b91507fffffffffffffffffffffffffffffffffffffffffffffffffffffffffffffffff8203612123576121226120b7565b5b600182019050919050565b7f4e487b7100000000000000000000000000000000000000000000000000000000600052602260045260246000fd5b6000600282049050600182168061217557607f821691505b6020821081036121885761218761212e565b5b50919050565b7f5265636f726420616c7265616479206578697374730000000000000000000000600082015250565b60006121c4601583611c71565b91506121cf8261218e565b602082019050919050565b600060208201905081810360008301526121f3816121b7565b9050919050565b60008190508160005260206000209050919050565b60006020601f8301049050919050565b600082821b905092915050565b60006008830261225c7fffffffffffffffffffffffffffffffffffffffffffffffffffffffffffffffff8261221f565b612266868361221f565b95508019841693508086168417925050509392505050565b6000819050919050565b60006122a361229e61229984611ce5565b61227e565b611ce5565b9050919050565b6000819050919050565b6122bd83612288565b6122d16122c9826122aa565b84845461222c565b825550505050565b600090565b6122e66122d9565b6122f18184846122b4565b505050565b5b818110156123155761230a6000826122de565b6001810190506122f7565b5050565b601f82111561235a5761232b816121fa565b6123348461220f565b81016020851015612343578190505b61235761234f8561220f565b8301826122f6565b50505b505050565b600082821c905092915050565b600061237d6000198460080261235f565b1980831691505092915050565b6000612396838361236c565b9150826002028217905092915050565b6123af82611c66565b67ffffffffffffffff8111156123c8576123c7611a0a565b5b6123d2825461215d565b6123dd828285612319565b600060209050601f83116001811461241057600084156123fe578287015190505b612408858261238a565b865550612470565b601f19841661241e866121fa565b60005b8281101561244657848901518255600182019150602085019450602081019050612421565b86831015612463578489015161245f601f89168261236c565b8355505b6001600288020188555050505b505050505050565b7f5573657220616c72656164792072656769737465726564000000000000000000600082015250565b60006124ae601783611c71565b91506124b982612478565b602082019050919050565b600060208201905081810360008301526124dd816124a1565b9050919050565b7f496e76616c696420726f6c650000000000000000000000000000000000000000600082015250565b600061251a600c83611c71565b9150612525826124e4565b602082019050919050565b600060208201905081810360008301526125498161250d565b9050919050565b61255981611b91565b82525050565b600060408201905081810360008301526125798185611cac565b90506125886020830184612550565b9392505050565b7f4e6f7420617574686f72697a656420746f20616363657373207468697320726560008201527f636f726400000000000000000000000000000000000000000000000000000000602082015250565b60006125eb602483611c71565b91506125f68261258f565b604082019050919050565b6000602082019050818103600083015261261a816125de565b9050919050565b7f5265636f726420646f6573206e6f742065786973740000000000000000000000600082015250565b6000612657601583611c71565b915061266282612621565b602082019050919050565b600060208201905081810360008301526126868161264a565b9050919050565b7f4f6e6c7920646f63746f72732063616e2063616c6c20746869732066756e637460008201527f696f6e0000000000000000000000000000000000000000000000000000000000602082015250565b60006126e9602383611c71565b91506126f48261268d565b604082019050919050565b60006020820190508181036000830152612718816126dc565b9050919050565b7f4e6f7420617574686f72697a656420746f20766572696679207468697320706160008201527f7469656e742773207265636f7264730000000000000000000000000000000000602082015250565b600061277b602f83611c71565b91506127868261271f565b604082019050919050565b600060208201905081810360008301526127aa8161276e565b9050919050565b60006020820190506127c66000830184611cfe565b92915050565b60006127d782611ce5565b91506127e283611ce5565b92508282039050818111156127fa576127f96120b7565b5b92915050565b7f4e487b7100000000000000000000000000000000000000000000000000000000600052603160045260246000fdfea26469706673582212207d01efd5105a4a3b35cc03d849cdd425aab55406025b02de86f9c1d2eb0daa2064736f6c63430008110033",
  "linkReferences": {},
  "deployedLinkReferences": {}
}